{
  "contractName": "lottery",
  "abi": [
    {
      "inputs": [
        {
          "internalType": "uint256",
          "name": "amt",
          "type": "uint256"
        }
      ],
      "name": "deposit_money",
      "outputs": [],
      "stateMutability": "nonpayable",
      "type": "function"
    },
    {
      "inputs": [
        {
          "internalType": "uint256",
          "name": "amt",
          "type": "uint256"
        }
      ],
      "name": "withdraw",
      "outputs": [],
      "stateMutability": "nonpayable",
      "type": "function"
    },
    {
      "inputs": [],
      "name": "getBalance",
      "outputs": [
        {
          "internalType": "uint256",
          "name": "",
          "type": "uint256"
        }
      ],
      "stateMutability": "view",
      "type": "function"
    }
  ],
  "bytecode": "60806040526000805534801561001457600080fd5b5061023a806100246000396000f3fe608060405234801561001057600080fd5b50600436106100415760003560e01c806312065fe0146100465780632e1a7d4d14610064578063e9117d8914610080575b600080fd5b61004e61009c565b60405161005b91906100f4565b60405180910390f35b61007e60048036038101906100799190610140565b6100a5565b005b61009a60048036038101906100959190610140565b6100c0565b005b60008054905090565b806000808282546100b6919061019c565b9250508190555050565b806000808282546100d191906101d0565b9250508190555050565b6000819050919050565b6100ee816100db565b82525050565b600060208201905061010960008301846100e5565b92915050565b600080fd5b61011d816100db565b811461012857600080fd5b50565b60008135905061013a81610114565b92915050565b6000602082840312156101565761015561010f565b5b60006101648482850161012b565b91505092915050565b7f4e487b7100000000000000000000000000000000000000000000000000000000600052601160045260246000fd5b60006101a7826100db565b91506101b2836100db565b92508282039050818111156101ca576101c961016d565b5b92915050565b60006101db826100db565b91506101e6836100db565b92508282019050808211156101fe576101fd61016d565b5b9291505056fea264697066735822122061535be2135f0dfead93f7f70e393d1902d1c176b499918685516e59ae8c3c5a64736f6c63430008120033",
  "deployedBytecode": "0x608060405234801561000f575f80fd5b506004361061003f575f3560e01c806312065fe0146100435780632e1a7d4d14610061578063e9117d891461007d575b5f80fd5b61004b610099565b60405161005891906100ed565b60405180910390f35b61007b60048036038101906100769190610134565b6100a1565b005b61009760048036038101906100929190610134565b6100bb565b005b5f8054905090565b805f808282546100b1919061018c565b9250508190555050565b805f808282546100cb91906101bf565b9250508190555050565b5f819050919050565b6100e7816100d5565b82525050565b5f6020820190506101005f8301846100de565b92915050565b5f80fd5b610113816100d5565b811461011d575f80fd5b50565b5f8135905061012e8161010a565b92915050565b5f6020828403121561014957610148610106565b5b5f61015684828501610120565b91505092915050565b7f4e487b71000000000000000000000000000000000000000000000000000000005f52601160045260245ffd5b5f610196826100d5565b91506101a1836100d5565b92508282039050818111156101b9576101b861015f565b5b92915050565b5f6101c9826100d5565b91506101d4836100d5565b92508282019050808211156101ec576101eb61015f565b5b9291505056fea2646970667358221220695557197fbbb00c6c2330a2373b43ffffa5a5d8bee75af06c18b439250a85fb64736f6c63430008140033",
  "immutableReferences": {},
  "source": "// SPDX-License-Identifier: Unlicense\r\n\r\npragma solidity ^0.8.0;\r\n\r\ncontract lottery{\r\n  \r\n\r\n    uint bal=0;\r\n\r\n    function deposit_money(uint amt) public {\r\n        bal+=amt;\r\n    }\r\n    function withdraw(uint amt) public {\r\n        bal-=amt;\r\n    }\r\n    function getBalance() public view returns(uint){\r\n        return bal;\r\n    }\r\n\r\n    \r\n    \r\n    // address manager;\r\n\r\n    // address payable [] public  participants;\r\n\r\n\r\n    // receive() external payable {\r\n    //     require(msg.sender==manager);\r\n    //     participants.push(payable(msg.sender));\r\n\r\n\r\n    // }\r\n    // function getBalance() public view returns(uint){\r\n    //     return address(this).balance;\r\n\r\n    // }\r\n    // function random() public view returns(uint){\r\n    //     return uint(keccak256(abi.encodePacked(block.prevrandao,block.timestamp,participants.length)));\r\n\r\n    // }\r\n    // function Winner() public {\r\n    //     require(msg.sender==manager,\"no other person have permission to select the winner\");\r\n    //     uint r= random();\r\n    //     uint index=r % participants.length;\r\n\r\n    //     address payable winner;\r\n    //     winner=participants[index];\r\n\r\n    //     winner.transfer(getBalance());\r\n\r\n    // }\r\n\r\n}",
  "sourcePath": "C:\\HDDBKP\\Users\\dell\\newcontract\\contracts\\lottery.sol",
  "compiler": {
    "name": "solc",
    "version": "0.8.20+commit.a1b79de6.Emscripten.clang"
  },
  "schemaVersion": "3.4.14",
  "updatedAt": "2023-07-15T10:55:05.441Z",
  "devdoc": {
    "kind": "dev",
    "methods": {},
    "version": 1
  },
  "userdoc": {
    "kind": "user",
    "methods": {},
    "version": 1
  }
}